:020000040000FA
:08000000803102288731ED2F49
:10026C00163021009700080071082100C1007008A9
:10027C00C000080071082000EF007008EE000800B4
:10028C0071082100C3007008C200080064008001DE
:10029C000131890B4D290034031020000C1E03146E
:1002AC000030093D59290800320091019201930157
:1002BC0094019501960108006030320099009B0171
:1002CC009D0106309F009E010800F2007208F100AB
:1002DC007108F000813174218131080075292000EA
:1002EC00111E79297A2975297B29700823009A0017
:1002FC00080070082400910083292000911D872993
:10030C00882983299111240011088C2908001030A8
:10031C003C00A0000430A10018303D0095002400E2
:10032C0094010A3095001F30920021000E10240019
:10033C009512080081315A21813181318D21813111
:10034C008231292281318131622181318131362101
:10035C00813182310722813108005A30FD007D083D
:10036C002000E0005908D1005808D0006030FD0092
:10037C007D08D20000308231A52281312000510845
:10038C00DF005008DE00CA2908007C08803A2000F3
:10039C00A00080302002031DD52901307B020318F8
:1003AC00D829D929E6297B092000A0007C09A100C5
:1003BC00A00A0319A10A2008FB002108FC00E72968
:1003CC00E7290800F00181317F218131F5007508A2
:1003DC00FC00F00181317F218131F5007508FB00B3
:1003EC00F00181317F218131F5007508FA0079081F
:1003FC00F4007808F3007708F2007608F100062A7A
:10040C000800083023009F0090309D0024309E008F
:10041C0022309B009C010030F0000030F100813153
:10042C00402182310030F0000030F1008131462152
:10043C0082310030F0000030F10081313A218231FC
:10044C002000ED01080022008C018E0117302100E4
:10045C008C0035308E00243023008E0027308C0029
:10046C0024008C018E0125008C018E013730260072
:10047C008C003F308E003F3027008C003F308E00C8
:10048C0014303C00A40014303D00A300183095003B
:10049C0004303C00A1000800F7007708F200720855
:1004AC00F6005D2A0130F2007208F7075D2A770822
:1004BC00860087010108031D642A652A582A662ACA
:1004CC007608F2000030F300F209F309F20A03197E
:1004DC00F30A7708F4000030F50072087407F00096
:1004EC007308753DF1007A2A08002000A600A401CB
:1004FC00A501942A2308A000A1012008F3002108DB
:10050C00F4007B08A2002208F5008231D02282314F
:10051C0001302000A4070030A53D942A24082607AA
:10052C00A0002008860087010108A1002108A30073
:10053C002308031DA22AA32A802AA42A080020002B
:10054C00D5005108D7005008D600E501E601C02AB5
:10055C005630D3005308C4005208D4005408C500C8
:10056C0055088531F025823120004408E5074508FF
:10057C00E63DC02A56088400570885001200031D6A
:10058C00C82AC92AAE2ACA2A6608D1006508D00032
:10059C00CF2A080075080319D42AD52ADB2A750836
:1005AC00031DD92ADA2AE02ADB2A730881316B2150
:1005BC008231132B7508033E860087011600010457
:1005CC000319E92AEA2A082B7508033E86008701DD
:1005DC00403FF600413FF700750A86008701403F17
:1005EC00F800413FF9007908803AFA007708803A20
:1005FC007A02031D032B760878020318062B072BAF
:10060C00132B082B750A86008701013081074131B5
:10061C000318810A132B132B132B08008131A021F3
:10062C00833101308331BB2383313E302000D8002D
:10063C008830D9008131B3218331242B813152216F
:10064C008331003A03192B2B2C2B552B8131E821AC
:10065C00833174082000A3007308A2007208A10063
:10066C007108A000013085313B258331200023081F
:10067C00E4002208E3002108E2002008E100003039
:10068C00D8008830D9006408DD006308DC006208FB
:10069C00DB006108DA008131B3218331242B2A304D
:1006AC002000D8008830D9008131B3218331242B2C
:1006BC00242B242B803102282000AE006B1C672BCE
:1006CC00682B712B2E08FC007C08FB00270882315C
:1006DC007B228331712B2000A91B752B762B7B2B56
:1006EC002908AD002808AC007D2BAC01AD01AA0196
:1006FC00AB01922B2030F3000030F40020002E08C8
:10070C00FC007C08F5008231D022833101302000BE
:10071C00AA070030AB3D922B2B08803AFC002D0829
:10072C00803A7C02031D9C2B2C082A02031C9F2B55
:10073C00A02B802B20006B18A42BA52BAD2B2E08E7
:10074C00FC007C08FB00270882317B2283312000CF
:10075C00270882315222833120002C087007A70011
:10076C002D08713DA800BA2B0800F5002400951A3D
:10077C00C02BC12B1B2C7508F000F101F035F10DCD
:10078C00F035F10D7008013EF2000030713DF300C0
:10079C005E30720784008830733D85000008940039
:1007AC007508F000F101F035F10DF035F10D5E300A
:1007BC00700784008830713D850000089500960113
:1007CC007508F000F101F035F10DF035F10D700800
:1007DC00023EF2000030713DF3005E30720784007F
:1007EC008830733D8500000892007508F000F10117
:1007FC00F035F10DF035F10D7008033EF2000030CC
:10080C00713DF3005E30720784008830733D8500C3
:10081C000008F40021000E087406FE3974068E00E0
:10082C002400951601301D2C1D2C00301D2C0800A9
:10083C00FA01F71F222C232C302CF409F509F609A8
:10084C00F709F40A0319F50A0319F60A0319F70A4A
:10085C00FA01FA0AF31F332C342C402CF009F1095D
:10086C00F209F309F00A0319F10A0319F20A031940
:10087C00F30A402C73087204710470040319472C9A
:10088C00482C872CF901F90A572C0130F035F10D61
:10089C00F20DF30D890B4C2C0130F8007808F90798
:1008AC00572CF31F5A2C5B2C4B2C5D2C5D2C730896
:1008BC007702031D6B2C72087602031D6B2C7108DA
:1008CC007502031D6B2C70087402031C6E2C6F2CAC
:1008DC00782C7008F4027108F53B7208F63B73082B
:1008EC00F73B782C0130F336F20CF10CF00C890B41
:1008FC00792C0130F902031D842C852C5D2C872C5E
:10090C00872C7A0803198B2C8C2C982CF409F5095C
:10091C00F609F709F40A0319F50A0319F60A03197B
:10092C00F70A982C7708F3007608F2007508F100A6
:10093C007408F000A12C08002000A101F31FA72CC3
:10094C00A82CB52CF009F109F209F309F00A0319E6
:10095C00F10A0319F20A0319F30AA101A10AF71FFC
:10096C00B82CB92CC92CF409F509F609F709F40AC5
:10097C000319F50A0319F60A0319F70A0130F800EE
:10098C007808A106C92C0030A5000030A400003066
:10099C00A3000030A20073087204710470040319E0
:1009AC00D82CD92C202DA001A00AE82C0130F03530
:1009BC00F10DF20DF30D890BDD2C0130F8007808E8
:1009CC00A007E82CF31FEB2CEC2CDC2CEE2CEE2CE3
:1009DC000130A235A30DA40DA50D890BEF2C7308C6
:1009EC007702031D032D72087602031D032D710877
:1009FC007502031D032D70087402031C062D072DB0
:100A0C00112D7008F4027108F53B7208F63B73085F
:100A1C00F73B2214112D0130F336F20CF10CF00CD3
:100A2C00890B122D0130A002031D1D2D1E2DEE2C45
:100A3C00202D202D21080319242D252D312DA2091F
:100A4C00A309A409A509A20A0319A30A0319A40A54
:100A5C000319A50A312D2508F3002408F2002308F8
:100A6C00F1002208F0003A2D08002000A800280808
:100A7C000319412D422D562DA31F452D462D562DC4
:100A8C002009AA002109AB002209AC002309AD0002
:100A9C00AA0A0319AB0A0319AC0A0319AD0A5E2D95
:100AAC002308AD002208AC002108AB002008AA00E6
:100ABC002308220421042004031D652D662D702DAE
:100ACC000030A3000030A2000030A1000030A000D4
:100ADC00EF2DEF2D9630A4002408A900812D0130B4
:100AEC00A4002408A9070130AD36AC0CAB0CAA0C41
:100AFC00890B7A2D812DFE302D05031D862D872D1A
:100B0C00752D9C2D9C2D0130A4002408A9070130C3
:100B1C00AA070030AB3D0030AC3D0030AD3D01309C
:100B2C00AD36AC0CAB0CAA0C890B962DFF302D05F9
:100B3C00031DA12DA22D892DAE2DAE2D0130A902A4
:100B4C000130AA35AB0DAC0DAD0D890BA72DAE2D1B
:100B5C00AC1BB12DB22DB92D023029020318B72DC3
:100B6C00B82DA42DB92D2918BC2DBD2DC52DFF30A8
:100B7C00AA05FF30AB057F30AC05FF30AD05031087
:100B8C00A90C2908A400A501A601A7011830A435B9
:100B9C00A50DA60DA70D890BCD2D2408AA0425089B
:100BAC00AB042608AC042708AD0428080319DF2D74
:100BBC00E02DE62DA31FE32DE42DE62DAD17E62D3C
:100BCC002D08A3002C08A2002B08A1002A08A000C5
:100BDC00EF2D08002000CF00440886008701403F1D
:100BEC00C600413FC7004608840047088500120034
:100BFC00253A031D022E032E9D2E440886008701E4
:100C0C000130810741310318810AE701E801EB014A
:100C1C00EC01FF30E900FF30EA0044088600870150
:100C2C00403FC600413FC700460884004708850086
:100C3C001200643A0319232E242E362E4408860003
:100C4C008701403FC600413FC70046088400470863
:100C5C0085001200693A031D342E352E662E362E71
:100C6C004408860087010130810741310318810A4D
:100C7C004508860087010108840085010230810740
:100C8C00003FC600013FC7004608CB004708CC0018
:100C9C00890D893B8909CD00CE004E08B2004D0864
:100CAC00B1004C08B0004B08AF004F088631C52688
:100CBC00853120003008C5002F08C400C42EC42E76
:100CCC00440886008701403FC600413FC7004608E4
:100CDC008400470885001200253A031D762E772ED6
:100CEC00912E440886008701013081074131031899
:100CFC00810A2530F3000030F4004F08C600460886
:100D0C00F5008231D022853101302000C400003042
:100D1C00C500C42EC42E440886008701013081070B
:100D2C0041310318810AC401C501C42EC42E4408E4
:100D3C0086008701403FC600413FC700460884003B
:100D4C00470885000008C800C9014808F300490895
:100D5C00F4004F08CA004A08F5008231D0228531D0
:100D6C0020004408860087010130810741310318B7
:100D7C00810A0130C4000030C500C42E08002000D8
:100D8C00B9003208C1003108C0003008BF002F087C
:100D9C00BE00C11BD22ED42E0130D52E0030B30094
:100DAC00B4013308BC003408BD003C083D040319F1
:100DBC00E02EE12EEC2EBE09BF09C009C109BE0A06
:100DCC000319BF0A0319C00A0319C10AEA1BEF2E43
:100DDC00F02EF42EFD30EB05FF30EC056A08803A5E
:100DEC00B30080303302031DFD2E0130690203185D
:100DFC00002F012F072F01302000B7000030B80062
:100E0C000C2F20006A08B8006908B7006808BB00FE
:100E1C006708BA003C083D04031D152F162F1B2F25
:100E2C006B1D192F1A2F1F2F1B2FFF30BA07FF30E6
:100E3C00BB3D1F30C2000030C3004208A03E8600FC
:100E4C0087018101772FFF302000C207FF30C33D9F
:100E5C000030F3000030F2000030F1000A30F000F6
:100E6C004108F7004008F6003F08F5003E08F40082
:100E7C0084311E2486317108FC007008FB0081311E
:100E8C00CB2186317B08303E2000B3004208A03EC7
:100E9C008600870133088100FF30B707FF30B83D6B
:100EAC00FF30BA07FF30BB3D0030F3000030F200DA
:100EBC000030F1000A30F0004108F7004008F6005D
:100ECC003F08F5003E08F4008431A22486317308F3
:100EDC002000C1007208C0007108BF007008BE007D
:100EEC00772F4308803AB30080303302031D802FE4
:100EFC0001304202031C832F842FB02F20004108A5
:100F0C0040043F043E04031D8C2F8D2F292F3808DD
:100F1C00803AB30080303302031D962F0130370224
:100F2C000318992F9A2F292F20003B08803AB300E1
:100F3C0080303302031DA42F01303A02031CA72F6B
:100F4C00A82FB02F2000EB18AC2FAD2F292FB02FCE
:100F5C00B02FB02F20003C083D04031DB62FB72F37
:100F6C00BC2F6B1DBA2FBB2FD92FBC2FFF30C20744
:100F7C00FF30C33D3C083D04031DC52FC62FCB2FAE
:100F8C002B30B5000030B600D02F2D30B50000301E
:100F9C00B600D02F3508B3004208A03E860087016A
:100FAC0033088100D92F4208A03EB3003308A700B4
:100FBC003B08A9003A08A80039088331622386311E
:100FCC0020002808B0002708AF00EC2F080065307F
:100FDC00840000308500093081314C218731A030EC
:100FEC00840000308500203081314C218731200075
:100FFC008331142B4134443453343134323433344C
:10100C0031342034723465346134643469346E3470
:10101C0067343A3420342534693420340A340034AB
:10102C0000340034003400347F3401340034003494
:10103C000034003400340034003400340034003404
:10104C0000340034003400344134443453343134EB
:10105C0032343334313420346E346F3474342034BD
:10106C0066346F3475346E3464342E340A34003480
:10107C0050347234653470346134723469346E3483
:10108C0067342034413444345334313432343334BF
:10109C0031343A34203400340034003474340134A4
:1010AC00003400340034003400340034073402348B
:1010BC000A3440341F3400340A3440341F340034B2
:020000040001F9
:08000E00ECFFF3FFFFDFFFFF31
:00000001FF
